:020000040000FA
:1000000018150020F5000000F9000000FB000000BA
:10001000FD000000FF0000000101000000000000E2
:1000200000000000000000000000000003010000CC
:1000300005010000000000000701000009010000A8
:100040000B0100000B0100000B010000F702000093
:100050000B010000F90200000B0100000B01000081
:100060000B0100000B01000000000000FB0200007B
:100070000703000009030000931B00002901000092
:100080000B010000330100000B0100000B01000018
:100090000B010000630200000B0100000B010000D7
:1000A0000B0100000B0100000B0100000B01000020
:1000B0000B0100000B0100000B0100000B01000010
:1000C0000B0100000B0100000B0100002B010000E0
:1000D0002D0100002F010000310100000000000090
:1000E000DFF80CD004F02EF900480047C1070000EB
:1000F0001815002005480047FEE7FEE7FEE7FEE78B
:10010000FEE7FEE7FEE7FEE7FEE7FEE7E1000000B0
:1001100010B50022838C4FF60F7403EA040201F03D
:1001200070031343838410BD704770477047704756
:10013000704770B5002500240026F94803F0DFFC65
:10014000C5B2F74803F0FFFCC4B204F00200022875
:100150001BD1F4480068F4490968884212D0F3487A
:10016000F14A1268815CEE4803F0CCFCEE4800686E
:10017000401CED49086008460068402805D1002071
:10018000086002E00120EA49087004F00400042835
:1001900015D1E34803F0C0FCE64908700846007832
:1001A000E549E64A12688854E4480068401CE3497F
:1001B000086008460068402801D10020086070BD32
:1001C00010B5044603E014F8010B02F084F920781E
:1001D0000028F8D1202002F07EF910BD70B5002073
:1001E00003F0AAFB044604F00400042815D1D44807
:1001F0000078D449098888420ADAD1480578681C11
:10020000CF4A1070D048415D002003F04BFB04E062
:100210000020CE490870CE49088004F00800082864
:100220001ED1002003F034FBC1B2C9480588681C08
:10023000C74A1080C748415503F087FBC449098865
:10024000884201D1012000E00020C149098801292C
:1002500000D100E00021084302D00020BE49087010
:1002600070BD10B5002003F067FB044604F00800E1
:10027000082812D1002003F00BFBC1B2B748026876
:100280000068401CB54B1860B5488154184600689A
:10029000012802D900201946086004F0040004284F
:1002A00015D1B048006802280BD2AE480268006839
:1002B000401CAC4B1860AC48815C002003F0F2FAA3
:1002C00005E001224FF48871002003F07BFA04F46A
:1002D0008070B0F5807F08D101224FF49871002022
:1002E00003F070FA0120A149087010BD00E0401E23
:1002F0000028FCDC70477047704710B50121880763
:1003000003F04FFA10BD7047704770B501460029E1
:1003100000DA0021032900DD0321954D35F8115045
:10032000012D07D10022934D35F91150924E36F927
:10033000153005E0914D35F91120914D35F9113009
:100340004FF4F83505EB421505EB83042568A8B298
:1003500070BD70B50146002900DA0021032900DDD7
:100360000321834D35F81150012D07D10022814D15
:1003700035F91150804E36F9153005E07F4D35F9CD
:1003800011207F4D35F911304FF4F83505EB42154A
:1003900005EB830425684FF6FF7606EA154070BD2D
:1003A00030B50546774805600068012817D100245C
:1003B0000DE02046FFF7CDFF734941F824002046A9
:1003C000FFF7A3FF00B2714921F81400641C7048C4
:1003D00000688442EDDB01206E49087002E00020D5
:1003E0006C49087000206C4908606C49086030BD99
:1003F00002461184108C70470146012905D002295C
:1004000005D0032905D0002070474020FCE780205C
:10041000FAE7C020F8E7014631B1012906D00229E8
:1004200006D0032908D105E0062070470420FCE728
:100430000220FAE70020F8E70020F6E70146082945
:1004400005D2DFE801F00406080A0C0E10120120A4
:1004500070471120FCE72120FAE73120F8E741201E
:10046000F6E75120F4E76120F2E77120F0E72DE98B
:10047000F04704460D4616464FF00009C8462F4681
:10048000012003F0CDFB03F0E0FB814600BF0DE04F
:100490004FF0000901CC01C700BF03F0D6FB814635
:1004A00009F001000128F8D008F10408B045EFD3A5
:1004B000002003F0B5FBBDE8F08770B500240D46C1
:1004C000034600BF02E040CD40C3241D9442FAD34E
:1004D00070BD0146082905D2DFE801F00406080ACC
:1004E0000C0E10120E2070470E20FCE70E20FAE7CB
:1004F0000E20F8E70E20F6E70E20F4E70E20F2E7D4
:100500000E20F0E710B50446C82C6ED04DDC142C3C
:100510006CD045DC082C6AD00A2C69D1A5E000001B
:1005200000500040C4020020C8020020A40E002099
:100530006900002070000020640E0020BC02002032
:10054000A60200209202002014100020A402002025
:100550009C020020140F0020A50200208000002033
:100560008A00002084000020880000208C000020E9
:10057000DC020020E4020020F40E0020F40200203F
:10058000D402002044000020E40E0020FC020020E1
:10059000600000205C000020B4020020B8020020AF
:1005A000322C4ED0642C74D141E0B4F5C87F2AD0EF
:1005B000B4F5FA7F1DD0B4F57A7F0CD0B4F5FA6F9C
:1005C00067D14FF4804300220321FE4802F07AFEF7
:1005D000FD48046060E04FF4804300220721F948A1
:1005E00002F070FEF848046056E016E033E046E0A2
:1005F0004FE04FF4804300220F21F24802F062FEE8
:10060000F148046048E04FF4804300221321ED4894
:1006100002F058FEEC4804603EE04FF480430022B4
:100620002721E84802F04EFEE748046034E04FF42A
:10063000804300224F21E34802F044FEE248046078
:100640002AE04FF4804301222721DE4802F03AFEDF
:10065000DD48046020E04FF4804302224F21D94856
:1006600002F030FED848046016E04FF480430722C1
:100670004F21D44802F026FED34804600CE04FF42A
:10068000804307226321CF4802F01CFECE4804605D
:1006900002E04FF0FF3010BD00BF2046FBE770B511
:1006A00088B004460D460120C84908600020C849AA
:1006B0000880C849088020B2C749088028B2C749C5
:1006C00008800020C6490880C6490880C6480068DE
:1006D000C64908603220FFF715FFC049B1F9000094
:1006E000FFF7F7FE00B2C24908802A214FF04020F0
:1006F00003F05DF9B949B1F90000FFF79FFE064626
:1007000031464FF0402003F052F9B149B1F90000F1
:10071000FFF781FE06463146B64803F001F8AE49C0
:10072000B1F90000FFF768FE06463146B14830389F
:1007300002F0F6FF0120B04908700020AF490860C0
:10074000AF49086000BFAD4800686428FBDB0020AB
:10075000A9490870AB480268ABA1684603F094FE53
:10076000684601F0CFFE2E2001F0B5FEA5480068D6
:1007700008B070BD10B501221146924802F009FE82
:100780004FF48043002203218E4802F09BFD00239A
:100790001A464FF480518B4802F07AFD4FF47032C4
:1007A0000121884802F0C4FD00220121854802F0A1
:1007B000DFFD80230022D900824802F0EFFD10BD4A
:1007C0008EB000240020914908808C4908608C4933
:1007D00008608F4908608F4908608F4908608F4919
:1007E0000860012079490860002605E0002078496A
:1007F00021F81600701C06B2042EF7DB00261BE061
:100800000020744921F816000320854921F81600BC
:100810000720724921F8160000206F4921F81600C0
:10082000804921F81600804941F826000E207049C1
:1008300021F81600701C06B2042EE1DB04207B496F
:100840000880022048808880C88003200881042016
:1008500048818881C8817820754908806E20488049
:100860008880C88008817820488188815A20C88182
:1008700000205C4908806F4908805E483038008855
:10088000C0F30D0040F480405A4930390880F0210F
:100890005848303802F0DBFE00215648303802F06C
:1008A000DAFEFE21534802F0D2FEFE21514802F04A
:1008B000CEFE00214F48303002F0C9FE0022022156
:1008C000104602F0A9FC4FF4B97002F037FE002385
:1008D0001A461946184602F007FE07230022114661
:1008E000104602F014FE02220021424802F0C2FE2D
:1008F00000231A460321184602F0F6FD0321314871
:1009000002F0F2FC01F0A7FEFFF734FF01F0BDFE9C
:1009100001F08DFE1021880602F028FF98230022A6
:1009200060214FF0804002F00FFF012002F00BFE2B
:100930000821304802F0F4FE152001F063FD11207B
:1009400001F060FD302002F0C3FF00203A4908604A
:1009500008203A4908700320487037480268006848
:10096000401C354B18600846815C002002F09AFF5D
:1009700000BF334800780028FBD0002030490870C1
:10098000102230493048FFF798FD00202E490874A6
:1009900010211848303802F0C3FE0E2001F032FD5D
:1009A0000121084802F0A0FC0020FFF725FD40F0DF
:1009B000100A51460F48303802F0B2FE0120234998
:1009C000088045E0800003401800002060000020FF
:1009D000CC020020DC020020F4020020D40200201F
:1009E000660000200C030020000000207C00002096
:1009F000EC020020306000405C000020B4020020C7
:100A0000B802002014030020252B640010030020EE
:100A1000BC020020C0020020C4020020C802002046
:100A2000E4020020FC020020E40E0020F40E00206E
:100A3000040F00208825004084000020880000204A
:100A40008C00002010FA01001C000020140000207F
:100A500041F20401FE48FFF7CBFC4FF4C860FD49AA
:100A6000086001F088B8FC48007850B9FB4800687D
:100A7000FB490968884201F0098002F06AFA01F036
:100A800005B8F8480078012823D0F748007858289E
:100A900003D0F5480078782809D1F348401C02F0CB
:100AA0002AFB82465246F1A1EF4803F0EDFCF048E4
:100AB0000078582803D0EE480078782809D1EC480F
:100AC000401C02F018FB82465246E8A1E84803F0B9
:100AD000DBFC0024E748007837287DD024DC272879
:100AE0007BD011DC04285ED007DC012876D00228F8
:100AF00075D0032840F0BD87F8E3052841D00728CA
:100B00004DD02528F6D13DE02D380A2880F0B18758
:100B1000DFE810F071011307AF07AF074A00AF0716
:100B20002403AF078503E20438381028EED2DFE84B
:100B300010F09D04A007A00732029B027301E0029F
:100B400000030703EE040E036903BB021000A007B5
:100B5000B206C94801F0C8FCC34803F001F9824657
:100B60005146BB48FFF744FCC14803F0F9F8B949C6
:100B7000086008460068052801DA0520086000F0D2
:100B80007FBF00BF0020BD490880B74803F0E8F8E8
:100B90008246FFF7B7FCB84801F0A6FCEFE7B6487D
:100BA00001F0A2FCEBE700BF0020B4490880AE488A
:100BB00003F0D6F8C4B2601CB1490860042C5ADABC
:100BC000AB4803F0CDF800F00300AE4921F8140063
:100BD000A74803F0C5F803E0FCE360E05BE0FAE35C
:100BE00000F003004FF4F93101EB8007386800B2E0
:100BF000A54921F814009E4803F0B2F8C0F3022082
:100C0000A24921F814000E20A14921F814009848A7
:100C100003F0A6F810F4006F01D0022000E00020DD
:100C20009C4921F81400924803F09AF8C0F3003070
:100C3000994921F814008E4803F092F8C0F302207D
:100C4000964921F814001CB90020954908801EE03F
:100C500093480088D8B9864803F082F8C0F3C000F2
:100C60008F4908800846008888B185480068401E82
:100C7000834908600BE0042C09D1042080490860F6
:100C80007B4803F06DF8C0F3C000854908807A48BE
:100C900001F02AFC73E77848FFF792FA00BF0020C2
:100CA00076490880704804782046372C4BD009DC00
:100CB000A0F13000072874D2DFE800F011151922E6
:100CC0002D933B0058286ED004DC382846D03928B4
:100CD00067D14EE0592867D05A28F9D165E071A054
:100CE00001F010FC7EE071A001F00CFC7AE07122B2
:100CF00070A1724803F0C8FB704801F003FC71E07A
:100D00004FF4FD373A686EA16C4803F0BDFB6B48A9
:100D100001F0F8FB66E010226B496C48FFF7CDFB51
:100D20006A4A6BA1654803F0AFFB644801F0EAFB37
:100D300058E0694F3A6869A1604803F0A5FB5F4835
:100D400001F0E0FB4EE0604F30373A685CA15B4851
:100D500003F09AFB594801F0D5FB43E05A4F403766
:100D60003A6854A1554803F08FFB544801F0CAFB80
:100D700038E04FF4FA39002405E019F8040003A91B
:100D80000855601CC4B2102CF7DB00208DF81C0045
:100D900003AA4FA1494803F077FB484801F0B2FB92
:100DA00020E01EE0FFE700BF00BF582C04D0592C04
:100DB00008D05A2C10D10BE04A480068401C494921
:100DC000086009E047480068401E4649086003E0A3
:100DD00000204449086000BF00BF0120424908705C
:100DE00000E000BF00BF24480078692802D10D2030
:100DF00001F062FBC3E6002020490880364F3868C6
:100E00003A490860084635A102682C4803F03CFBCB
:100E10002A4801F077FBB2E6174801F065FB12485B
:100E200002F0ABFF0546002D11DA114802F0A5FFD4
:100E30000546002D76DA1148008838B12C48B0F903
:100E4000000000F5F8300C900C9853E05EE08DE067
:100E50008000034018000020B0020020BC020020E7
:100E6000C002002048000020FE0500202569000087
:100E700030060020B1020020680500201003002089
:100E800060000020CC02002004030020D4020020D7
:100E9000EC020020F4020020DC020020E40200202A
:100EA0006600002044415441510000003234353086
:100EB000000000002530325800000000D605002058
:100EC0002530386C5800000010FA01001C0000208A
:100ED000252D31367300000010FC01002530386CE0
:100EE000583033004C0000205A00002050000020F1
:100EF0000E03002002F044FE4FF40072FC480C99EF
:100F0000FFF7B5FA0020FB49088043E00020F949CB
:100F10000880F9A1FE4803F0B7FAFD4801F0F2FAA3
:100F200038E0FFE7B5F5606F15DA002D13DB01201F
:100F3000F049088005F46060F64908800846B0F979
:100F4000000000F5F8300C904FF40072E8480C995E
:100F5000FFF7B3FA1EE00020E6490880EEA1EC4856
:100F600003F092FAEA4801F0CDFA13E0B5F5007FFC
:100F70000DDA002D0BDBC5F30805DFF87493A944E7
:100F8000E94802F0EDFE054689F8005002E0002035
:100F9000D8490880F3E5E54801F0A6FAE44802F0F4
:100FA000ECFE0546002D4ADADF4802F0E6FE054673
:100FB000002D20DACF48008890B1D648B0F9000063
:100FC00000F5F8300C900C9802F0DAFD4FF4007246
:100FD000C7480C99FFF74BFA0020C649088042E049
:100FE0000020C4490880C4A1C94803F04DFAC8488C
:100FF00001F088FA37E0B5F5206F15DA002D13DB24
:101000000120BC49088005F46060C2490880084698
:10101000B0F9000000F5F8300C904FF40072B448BD
:101020000C99FFF74AFA1EE00020B2490880BAA1E5
:10103000B74803F029FAB64801F064FA13E0B5F5B1
:10104000007F0DDA002D0BDBC5F30805DFF8A09259
:10105000A944B54802F084FE054689F8005002E034
:101060000020A44908808AE5B048FFF7A9F80020CD
:10107000A0490880AE4802F080FE8246C0170AEB05
:1010800090708510B5F5206F0DDA002D0BDB4FF455
:10109000F83000EB85073A68A6A19D4803F0F4F903
:1010A0009B4801F02FFA6AE5A04801F01DFAA0481C
:1010B00002F056FEA149086008460068032801DADC
:1010C00003200860984802F04BFE9D4908600846DE
:1010D0000068022801DA02200860994800689749F0
:1010E0000968884204DB95480068401E94490860FE
:1010F00045E58E48FFF764F800207E4908808C485B
:1011000002F03BFE8246C0170AEB90708510002D5E
:101110000EDBB5F57F6F0BDA4FF4F83000EB850787
:101120003A6884A17A4803F0AFF9794801F0EAF906
:1011300025E500206F4908807C4801F0D5F91EE5BF
:1011400000206C490880794801F0CEF917E50020AD
:1011500068490880754801F0C7F910E5744801F046
:10116000CAFF05464FF420606A4908804FF40072B8
:101170000846B0F9001001F5F8315D48FFF79DF918
:101180004FF4206063490880DFF86491002416E082
:101190006749085D02F0C8FD462805DC6449085D22
:1011A00002F0C2FD412808DA6148005D392803DCFD
:1011B0005F48005D302800DA6424601CC4B2102C43
:1011C000E6DB642C00D1DAE4102407E0A4F110007F
:1011D0005749085C09F80400601CC4B2202CF5DBF8
:1011E0004C48B0F9000000F5F83002F0C9FC4FF4AB
:1011F00000724848B0F9001001F5F8313C48FFF79B
:1012000036F9BCE400203B490880494802F0B5FDAE
:1012100000B24C490880454801F066F9AFE400206F
:1012200034490880424802F09BFDC4B23F4801F0B7
:1012300069F9052C5BD2DFE804F003152740CF00E5
:10124000394802F08DFD002807DB374802F088FDA1
:101250003A4908603CA001F060F93848006801F0A4
:1012600076F9E3E0304802F07BFD002807DB2E48EA
:1012700002F076FD3249086037A001F04EF930489F
:10128000006801F064F9D1E0274802F069FD002808
:101290000EDB254802F064FD3349086080230022FC
:1012A00008460168314802F00DF831A001F035F927
:1012B0002D48006801F04BF9B8E04FF42060154963
:1012C0000880002405E02D48094941F82400601CED
:1012D000C4B2502CF7DB0F48B0F9000000F5F8302D
:1012E00002F04EFC4FF400720A4849E0ADE08EE097
:1012F0009000002010030020496E76616C69642024
:1013000057726974652053657175656E6365000079
:10131000D60500200E030020496E76616C696420BA
:10132000706167650000000030060020680500203D
:10133000FE0500202530386C580D0000000000200C
:1013400004000020660000200A0D4D41584144432E
:1013500053544152543D00000A0D535749544348D9
:101360004D55583D0000000008000020800003405B
:101370000A0D4E657753463D000000007856341242
:10138000B0F9001001F5F831F048FFF770F8F0A05F
:1013900001F0C3F84FF44060F7490880002405E0ED
:1013A000F648EA4941F82400601CC4B2502CF7DB2F
:1013B000F148B0F9000000F5F83002F0E1FB4FF41D
:1013C0000072ED48B0F9001001F5F831DF48FFF781
:1013D0004EF82BE065E02BE0E94AEAA1EB4803F088
:1013E00053F8EA4801F08EF8E94F3A68E9A1E74876
:1013F00003F04AF8E54801F085F8E94F3A68E9A1B9
:10140000E24803F041F8E14801F07CF80EE0E9A081
:1014100001F083F8EB48006801F099F8EAA001F0C8
:101420007CF8ED48006801F092F800BF00BF27E3A8
:101430000020EA490880EA490880EA4801F054F8A7
:10144000E9A1EA4803F020F878E20020E3490880A7
:10145000E7490870E34801F047F80821E54802F041
:101460005FF9E5A1E14803F00FF867E20020DB49EE
:101470000880DE4802F074FCC4B2032C00DD0324B3
:10148000DE4802F06DFC06B2032E00DD0324002EC0
:1014900000DA0024DA4820F81460D24801F024F879
:1014A000EEE20020CD490880D04802F059FCC4B2D9
:1014B000032C00DD0324D14802F052FC06B2012EB9
:1014C00000DD0124002E00DA0024CE4820F814604C
:1014D000C44801F009F8D3E20020C0490880C3489D
:1014E00002F03EFCC4B2032C00DD0324C34802F02A
:1014F00037FC06B2072E00DD0724002E00DA002498
:10150000C14820F81460B74800F0EEFFB8E20020B0
:10151000B2490880B348FEF753FEB44802F020FCFD
:10152000C4B2072C2FD2DFE804F00454992FE9F35A
:10153000F200002406E04FF08040844941F8240086
:10154000601CC4B2802CF6DB4FF4F83002F018FBBC
:101550004FF400724FF4F8317C48FEF788FF4FF4E7
:10156000F93002F00DFB0020784908600D2048603A
:10157000122088601620C8604FF400724FF4F931D1
:101580007248FEF774FF81E100240CE02146002040
:10159000FFF785F806B2B0B29C4908446B4941F8A0
:1015A0002400601CC4B2082CF0DB00240EE02146AD
:1015B0000220FFF774F806B2B0B294490144634ABE
:1015C00004F1100042F82010601CC4B2082CEEDBBD
:1015D00024E000240CE021460020FFF760F806B26A
:1015E000B0B200F18040594941F82400601CC4B2F7
:1015F000082CF0DB00240EE021460220FFF74FF814
:1016000006B2B0B200F18040504A04F1100142F835
:101610002100601CC4B2082CEEDB00BF4FF4F83090
:1016200002F0AEFA4FF400724FF4F8314748FEF77B
:101630001EFF4FF4F93002F0A3FA0020434908607E
:101640000D204860122088601620C8604FF4007298
:101650004FF4F9313D48FEF70AFF17E14FF40072ED
:101660004FF4F8313948FEF728FF002418E02146EE
:101670000020FFF714F806B2344850F824006FF346
:101680000F00324941F82400B0B20D90084650F8DE
:1016900024100D9808442D4941F82400601CC4B260
:1016A000082CE4DB00241BE021460220FEF7F7FFB4
:1016B00006B2264904F1100051F82000010C09047B
:1016C000224A04F1100042F82010B5B2114651F838
:1016D0002000411904F1100042F82010601CC4B22F
:1016E000082CE1DB4FF4F83002F04AFA4FF40072B4
:1016F0004FF4F8311548FEF7BAFEC7E04FF4007218
:101700004FF4F8311148FEF7D8FE002410E0A8E0AD
:101710007EE03A4802F031FB05462D040B4850F8B4
:10172000240080B20544094840F82450601CC4B22B
:10173000082CEEDB4FF4F83002F022FA4FF400727E
:101740004FF4F8310148FEF792FE9FE09000002030
:101750000A0D506575646F204B65792C2043616CD0
:101760004461746520616E642053657269616C2008
:101770004E756D62657200000E030020214365877F
:101780001C0000206B65793D25730000D605002004
:1017900010FC010073733D2530386C5800000000C8
:1017A00040FA010063616C646174653D2530386CFA
:1017B000580000000A0D4D415841444353544152D2
:1017C00054204000000000200A0D5357495443485C
:1017D0004D55582040000000040000201003002058
:1017E0000C0300206805002031000000FE050020E9
:1017F0004100002030600040300000003006002032
:10180000F4020020DC020020E40200200000CC4CA6
:101810004FF400724FF4F831FE48FEF74EFE0024FC
:1018200011E0FD4802F0A9FA05462D04F94904F13A
:10183000100051F8200080B2054404F1100041F876
:101840002050601CC4B2082CEBDB4FF4F83002F0DF
:1018500097F94FF400724FF4F831EE48FEF707FEA7
:1018600014E04FF4F93002F08BF90020E9490860E8
:101870000D204860122088601620C8604FF4007266
:101880004FF4F931E348FEF7F2FD00BF00BF0D2031
:1018900000F012FEF4E0E148FEF792FCE04802F0AE
:1018A0006CFA0546681C19D10120DE490880420205
:1018B0004FF4F931D748FEF700FED648C068D54945
:1018C0008968CDE90010D3484368D7A1026803A80E
:1018D00002F0DAFD03A800F015FE2DE0A81C12D1DD
:1018E0004FF4F93002F04CF94FF400724FF4F93133
:1018F000C848FEF7BCFDD0A103A802F0C5FD03A8AF
:1019000000F000FE18E0C7480088A8B1042D13DAE3
:10191000002D11DBC04802F030FAB0F1000A01DB03
:10192000504601E0CAF10000C82805DABA4802F0C2
:1019300024FAB84941F82500A2E000BF0020B949C7
:101940000880B74802F00CFA00F00104012C60D1C5
:101950000120BB490870BB4908600020BA490880D3
:10196000BA490880BA480068BA4908600021BA48F4
:1019700001F0D6FEB9480088012823D12A214FF072
:10198000402002F014F8B649B1F90010B54A32F916
:101990001100FEF753FD824651464FF0402002F001
:1019A00006F8B149B1F90000FEF735FD824651460F
:1019B000A948303801F0B4FE1021A748603801F082
:1019C000AFFE2EE02A214FF0402001F0F0FFA749A2
:1019D000B1F90000FEF732FD824651464FF040203B
:1019E00001F0E5FFA049B1F90000FEF714FD8246C1
:1019F00051469948303801F093FE9D49B1F90000F5
:101A0000FEF7FAFC824651469348603801F088FEA2
:101A100007E000208A49087008218F48303801F01B
:101A20007FFE2046FEF7BCFC4CB90020FEF7E4FC2C
:101A300040F0100A51468848603801F071FE8D4828
:101A40000078A8B1A4B9002407E0E1008A48006842
:101A5000084173490855601CC4B2042CF5DB00240E
:101A600001E0601CC4B2022CFBDB0020814908703D
:101A700006E000206B49088080A000F04EFD00BF0A
:101A800000BF00207F4908707F4908706D480068DA
:101A9000012849D1302001F01BFF00207B4908605C
:101AA00005207B490870794802680068401C774B24
:101AB00018600846815C002001F0F4FE00BF754804
:101AC00000780028FBD00020724908707249086035
:101AD00000220221302001F010FF704890F80080B1
:101AE00090F801B008F01F0808F0100010280CD181
:101AF00008F00F080BEB0820C0F5805000B20B90E7
:101B00000B98404200B20B9003E00BEB082000B2B0
:101B10000B900B9800F5207000B20B9060490B9869
:101B200008800020474908605E48007818B31CE030
:101B300000205D4908705D48D0F800A00AF101005E
:101B40005A4A10605A4810F80A105A4801F0DAFF51
:101B500056480068B0F5006F02D100205349086074
:101B600000BF514800780028FBD050480068524917
:101B700009688842DCD1FEF776BF10B500231A460B
:101B80001946102001F0F1FC4C49002001F0E8FC5E
:101B900010BD2DE9FF5F00200390494800780390B5
:101BA000474801F0BFFB474908603E4800780028DD
:101BB0002ED045480068052190FBF1F02249B1F98B
:101BC0000010884206DD20480088401C00B21E49F3
:101BD000088005E001201B49086000201A490880A0
:101BE0001C480068002814D101211B4801F098FD11
:101BF00036481649B1F9001030F81100401E31493D
:101C00000968014101F00300019030480F495FE08D
:101C1000DBE2EAE2900000203006002068050020A8
:101C2000FE05002010030020256420256420256483
:101C30002025640D00000000646F6E650D0000003B
:101C40004100002010000020160000200C0300209E
:101C5000000000207C00002060600040DC020020CA
:101C6000E4020020F40E0020CC020020D402002068
:101C7000F40200205A0000204C0000200A0D4F6F93
:101C800070732100B1020020B00200208400002007
:101C9000880000208C000020800000208A000020A6
:101CA000AC0200205C00002069000020B802002087
:101CB0006406002000500040B40200200000FF0134
:101CC000800003406C00002018000020EC0200207F
:101CD000B1F9001030F81100401EFE49096841FAC0
:101CE00000F5FD480560FD48FD49B1F9001030F9E7
:101CF00011002D1AFB48FA49B1F9001050F82100E3
:101D000000FB05F84FEAE835F748F549B1F900104E
:101D100030F81100012816D1F448F149B1F900104A
:101D200030F9110005280AD2DFE800F00A030405A3
:101D3000070000BF00BF2D1D04E0093502E000BF11
:101D4000123500BF00BFB5F5804F01DB43F6FF75CC
:101D500015F5804F00DAE64DE348E149B1F900108E
:101D600030F8110020BBDE48008848B905F0FE02BB
:101D7000E0490868411CDF4B1960DF490A5409E05B
:101D8000E9B241F00102DB490868411CD94B1960F6
:101D9000D9490A54802181EAE511C9B241F0010212
:101DA000D4490868411CD34B1960D3490A54FAE05E
:101DB000CE48CB49B1F9001030F81100CF49088066
:101DC000CF48C749B1F9001030F91100CD49B1F938
:101DD00000100E1A002E03DB40F60820864226DB98
:101DE00043F6FF74BE48008848B904F0FE02C149BA
:101DF0000868411CBF4B1960BF490A5409E0E1B2B1
:101E000041F00102BB490868411CBA4B1960BA494C
:101E10000A54802181EAE411C9B241F00102B549B6
:101E20000868411CB34B1960B3490A54BBE0304603
:101E3000F11706EB5171CF10F11706EB5171C91074
:101E4000A6EBC10BB04A791C02EB0111AB4AB2F907
:101E5000002031F91210AC4A02EB0712A74BB3F97C
:101E6000003032F91320891A01FB0BF0C11700EB87
:101E700051714FEAE10BA44800EB07109F49B1F9FB
:101E8000001030F81100584400B2A04908800846FC
:101E90000088284404B2B4F5804F0BDB9C48974976
:101EA000B1F9001030F9114043F6FC70844256DD60
:101EB000044654E08E48001D844203DA041F0020CB
:101EC00001904CE004F580410CB22146E21704EB8E
:101ED0005262D01182468F49884AB2F9002031F906
:101EE00012105046814203DD814C0021019135E002
:101EF0002146E21704EB5262D211A4EBC21B864AC0
:101F0000411C02EB01117D4AB2F9002031F9121097
:101F1000814A02EB0012794BB3F9003032F91320F9
:101F2000A1EB020808FB0BF1CA1701EB52624FEA62
:101F3000E218794901EB0011704AB2F9002031F939
:101F4000124004EB08010CB243F6FC718C4200DD38
:101F50000C466749091D8C4200DA0C4600BF6048F8
:101F6000008848B904F0FE0262490868411C614BD0
:101F7000196061490A5409E0E1B241F001025D498A
:101F80000868411C5B4B19605B490A54802181EA57
:101F9000E411C9B241F0010256490868411C554B91
:101FA000196055490A5453480068B0F5006F02D1D2
:101FB0000020504908604A480088401C00B2484947
:101FC00008800846B0F900005449096888425CDB83
:101FD00000204349088052480088E8B3514801F086
:101FE0009CFB814619F0010F1FD000214D48603045
:101FF00001F02DFB4B48603001F08FFB02900298FE
:1020000010F0040F08D081223A490868411C394B6E
:10201000196039490A541AE0012236490868411CFE
:10202000344B196034490A5411E0012231490868DF
:10203000411C304B196030490A5404213948603042
:1020400001F005FB04213748603001F071FB19F005
:10205000080F0AD0032200E00FE026490868411C5F
:10206000244B196024490A5407E0012221490868D9
:10207000411C204B196020490A541E480068B0F5E5
:10208000006F02D100201B49086017481449B1F9BC
:10209000001030F8110001285ED1204800680128A6
:1020A00003D100202049086082E02A214FF040201F
:1020B00001F07DFC0D490A4AB2F9002031F91210F5
:1020C0001A4A32F91100FEF7B9F9014600904FF0B3
:1020D00040202DE06C00002014030020FC020020B2
:1020E0000C030020E40E0020DC020020E4020020AB
:1020F00000C0FFFFB4020020640600200C00002096
:1021000004030020AC020020A45D0000A80200200F
:10211000945D0000040F0020944D0000600000203A
:1021200066000020006000407C000020F40E0020CB
:1021300001F03DFCB949BA4AB2F9002031F9120068
:10214000FEF769F901460090B64801F0E9FAB64891
:102150000068B64908602BE0B5480068012803D143
:102160000020B249086023E02A214FF0402001F00E
:102170001EFCB049AA4AB2F9002031F91200FEF75C
:102180005DF9014600904FF0402001F010FCA3499A
:10219000A34AB2F9002031F91200FEF73CF90146DA
:1021A0000090A04801F0BCFA9F4800689F49086071
:1021B000A1489B49B1F9001030F81100012805D160
:1021C00010219848303801F0ABFA4BE09B49944A13
:1021D000B2F9002031F91200FEF70EF90146009025
:1021E0009048303801F09CFA3CE0904800680028A4
:1021F00038DD8E480068401E8C4908608749884A4F
:10220000B2F9002031F91200FEF705F901460090FD
:10221000844801F085FA8548006889490968884240
:1022200004DC00217F48303001F07AFA82487C4992
:10223000B1F9001030F81100012805D110217948BA
:10224000303801F06DFA0DE07C49754AB2F9002092
:1022500031F91200FEF7D0F801460090714830388D
:1022600001F05EFABDE8FF9F94B0002000F0E4FFAB
:1022700005216C48303001F0DFF900231A46194679
:10228000184601F031F900231A461946184601F0A4
:102290003EF940F2F33001F051F900F0DCF901228F
:1022A0004FF4F871002001F08DFA4F214E2001F01B
:1022B00006FB152000F0A6F8112000F0A3F861A09D
:1022C00000F02BF9302001F003FB0020604908608A
:1022D000082060490870032048705D480268006863
:1022E000401C5B4B18600846815C002001F0DAFA64
:1022F00000BF594800780028FBD0002056490870DC
:102300007FE0302001F0E4FA002051490860052008
:10231000504908704E4802680068401C4C4B1860D9
:102320000846815C002001F0BDFA00BF4A480078F1
:102330000028FBD000204849087048490860002266
:102340000221302001F0D9FA454890F8008090F839
:1023500001904B46424643A104A802F095F808F0CC
:102360001F0808F01000102828D108F00F08484670
:1023700001F095FE06460022414B01F021FE824607
:102380008B46404601F08BFE064600223C4B01F096
:10239000A7FD52465B46CDE9000101F0FBFC00229F
:1023A000384BCDE9020101F098FD04460D46224666
:1023B0002B4635A104A802F067F81FE0484601F05B
:1023C0006EFE064600222E4B01F0FAFD82468B4639
:1023D000404601F064FE06460022294B01F080FDD4
:1023E00052465B46CDE9020101F0D4FC04460D469D
:1023F00022462B462AA104A802F046F804A800F0C1
:102400008CF87EE700F01F020121914042094FF055
:10241000E02303EB8202C2F800117047CC020020D7
:102420000C03002030600040000000207C000020F1
:1024300060000020D4020020DC020020F402002012
:1024400004000020537461727421202000000000F9
:1024500084000020880000208C00002080000020E4
:102460008A00002055707065723D2530325820205A
:10247000204C6F7765723D253032582020200000B7
:10248000000030400000704020202020202020202C
:102490002D2D2D2D2D2D2D2D2025660A0D00000012
:1024A00020202020202020202B2B2B2B2B2B2B2BD4
:1024B0002025660A0D00000010B504460020C8491A
:1024C00008702146C74801F01DFB00BFC4480078D2
:1024D0000028FBD010BD10B50446C348007810B9E1
:1024E0002046FFF7E9FF10BD10B5044603E014F8DD
:1024F000010BFFF7F0FF20780028F8D10D20FFF73F
:10250000EAFF10BD10B5044603E014F8010BFFF715
:10251000E2FF20780028F8D110BD70B505462846A6
:1025200001F008FC0646402E10DA00240CE00020E2
:10253000AB490870295DAB4801F0E4FA00BFA84838
:1025400000780028FBD0641CB442F0DB70BD70B58D
:1025500005462A46A5A1A64801F096FFA44801F029
:10256000E9FB0646402E14DA002410E000209C49C6
:1025700008709F48015D9B4801F0C4FA002098490B
:10258000087000BF964800780028FBD0641CB44255
:10259000ECDB70BD70B505462A4696A1944801F063
:1025A00073FF934801F0C6FB0646402E14DA002460
:1025B00010E000208A4908708D48015D894801F0CB
:1025C000A1FA00208649087000BF854800780028DD
:1025D000FBD0641CB442ECDB70BD2DE9F0418046B9
:1025E000404601F06DFD044622460B4683A180481B
:1025F00001F04AFF7E4801F09DFB0746402F14DAA8
:10260000002610E00020764908707948815D754801
:1026100001F078FA00207249087000BF7048007815
:102620000028FBD0761CBE42ECDBBDE8F08110B583
:102630000521734801F000F8F921714801F00BF809
:1026400001224FF4F871002001F0BCF84F214E2018
:1026500001F035F910BD10B569486038008840F0C8
:102660003C00674960390880002303224FF4E131C0
:102670005C4801F0EBF9002201215A4801F04FFAC1
:102680003F21584801F05BFA10BD10B55C48603836
:10269000008EC0B240F42A405949603908860022B1
:1026A00003214FF0402001F078F940F64D0302225B
:1026B00051034FF0402001F067F910BD10B50446FA
:1026C0000120504908700121002001F0AAF80021E2
:1026D000084601F0A6F8302001F0FAF833204A4904
:1026E000086008460168002001F0DCF80020474936
:1026F000087000BF434800780128FBD0012010BDBE
:1027000070B506460024002501203E4908700121CD
:10271000002001F086F80021084601F082F815201B
:10272000012181403A4A430942F8231000BFA0200A
:1027300001F0CEF834480168002001F0B3F800BF82
:10274000002001F0F9F810F0030FF9D10022314810
:102750000188A02001F0D1F82E48058800202D49DD
:10276000088015200121814042094FF0E02303EB4E
:102770008202C2F8001100BF01202749087000BF83
:10278000254800780128FBD00121002001F049F8FC
:102790000021084601F045F8002020490880204922
:1027A00008600F4908701F4801780E4801F0AAF927
:1027B00000201D49088001240EE000BF0848007871
:1027C0000128FBD10020064908701648015D054824
:1027D00001F098F9601C84B2AC42EEDB012070BDC0
:1027E00069000020005000404100002025640000E6
:1027F0002803002025303258000000002566000024
:1028000060600040A402002094020020A602002084
:1028100080E100E092020020A50200209802002042
:10282000A0020020140F00209A02002070B500249E
:1028300001E0601CC4B2F748005D202803D0F648D0
:1028400000788442F5DB002C70D00120F349087039
:10285000F3490870EF48055D0020EE490855F1493D
:102860000870F1490870F1A1EA4801F06BFA18B953
:102870000120F0490870F8E2EFA1E64801F062FAA1
:1028800018B90220EB490870EFE2EDA1E14801F030
:1028900059FA18B90320E7490870E6E2E8A1DD48D3
:1028A00001F050FA18B90320E2490870DDE2E6A110
:1028B000D84801F047FA18B90420DE490870D4E27C
:1028C000E3A1D44801F03EFA18B90520D9490870AF
:1028D000CBE2E1A1CF4801F035FA18B90620D5497D
:1028E0000870C2E2DDA1CB4801F02CFA18B907202C
:1028F000D0490870B9E2DAA1C64801F023FA18B944
:102900000820CC490870B0E2D7A1C24801F01AFAF9
:1029100018B90920C7490870A7E2D4A1BD4801F041
:1029200011FA20B90A20C34908709EE29FE2D0A1A3
:10293000B84801F007FA18B90B20BE49087094E2B4
:10294000CCA1B44801F0FEF918B90C20B9490870BF
:102950008BE2C9A1AF4801F0F5F918B90D20B549CE
:10296000087082E2C5A1AB4801F0ECF918B90E205D
:10297000B049087079E2C3A1A64801F0E3F918B99B
:102980000F20AC49087070E2C0A1A24801F0DAF94A
:1029900018B91020A749087067E2BEA19D4801F050
:1029A000D1F918B91120A34908705EE2BBA199487A
:1029B00001F0C8F918B912209E49087055E2B8A173
:1029C000944801F0BFF918B913209A4908704CE2F5
:1029D000B5A1904801F0B6F918B9142095490870CE
:1029E00043E2B3A18B4801F0ADF918B91520914924
:1029F00008703AE2B0A1874801F0A4F918B916208E
:102A00008C49087031E2AEA1824801F09BF918B9F7
:102A100017208849087028E2ABA17E4801F092F99E
:102A200018B91820834908701FE2A9A1794801F05C
:102A300089F918B919207F49087016E2A5A17548CF
:102A400001F080F918B91A207A4908700DE2A2A1A4
:102A5000704801F077F918B91B207649087004E234
:102A60009EA16C4801F06EF918B91C2071490870DC
:102A7000FBE19BA1674801F065F918B91D206D497C
:102A80000870F2E197A1634801F05CF918B91E20C3
:102A900068490870E9E194A15E4801F053F918B95A
:102AA0001F2064490870E0E190A15A4801F04AF9FA
:102AB00018B920205F490870D7E18EA1554801F070
:102AC00041F918B921205B490870CEE18AA151482B
:102AD00001F038F918B9222056490870C5E187A1DC
:102AE0004C4801F02FF918B9232052490870BCE175
:102AF00083A1484801F026F918B924204D490870EF
:102B0000B3E180A1434801F01DF918B925204949D6
:102B10000870AAE17CA13F4801F014F918B92620F9
:102B200044490870A1E179A13A4801F00BF918B9BC
:102B300027204049087098E175A1364801F002F954
:102B400018B928203B4908708FE172A1314801F083
:102B5000F9F818B929203749087086E16EA12D4887
:102B600001F0F0F818B92A20324908707DE16BA114
:102B7000284801F0E7F818B92B202E49087074E1B5
:102B800067A1244801F0DEF818B92C202949087003
:102B90006BE164A11F4801F0D5F818B92D20254933
:102BA000087062E160A11B4801F0CCF818B92E2032
:102BB0002049087059E15DA1164801F0C3F818B921
:102BC0002F201C49087050E159A1124801F0BAF8B1
:102BD00018B930201749087047E156A10D4801F097
:102BE000B1F818B93120134908703EE152A10948E3
:102BF00001F0A8F818B932200E49087035E150A14B
:102C0000044801F09FF818B933200A4908702CE1F4
:102C100098E00000680500203C000020B002002081
:102C20003F000020FE05002030060020696E666F20
:102C300000000000B1020020737461727400000093
:102C400073746F7000000000736C6973740000008F
:102C500073726174650000006173630062696E00E5
:102C6000666C6F61740000006C730000726D000090
:102C7000726D2A00637000006D7600006D6B6469F0
:102C80007200000064656C7472656500746F756332
:102C900068000000617070656E640000636174001C
:102CA0006C7375736200000075736273796E6300F4
:102CB00073757370656E6400726573756D65000081
:102CC0007265626F6F74000068656C7000000000D0
:102CD000647400007264000074700000636500009A
:102CE0006366000063730000666F000074696D65C1
:102CF000000000007175000065770000657200003B
:102D00006563000073720000696300004100000009
:102D10004200000043000000440000004C0000009E
:102D20004D0000004E000000530000005200000063
:102D30004800000063686E00646F75740000000056
:102D40006B000000F5A1F74800F0FCFF18B9342033
:102D5000F549087089E0F5A1F24800F0F3FF18B9D1
:102D60003520F149087080E0F2A1EE4800F0EAFF5A
:102D700018B93720EC49087077E0F0A1E94800F075
:102D8000E1FF18B93820E84908706EE0EDA1E54888
:102D900000F0D8FF18B93620E349087065E0EBA1D0
:102DA000E04800F0CFFF18B94120DF4908705CE02F
:102DB000E8A1DC4800F0C6FF18B93B20DA490870EA
:102DC00053E0E6A1D74800F0BDFF18B93C20D64932
:102DD00008704AE0E3A1D34800F0B4FF18B93E20E0
:102DE000D149087041E0E0A1CE4800F0ABFF18B92E
:102DF0003D20CD49087038E0DDA1CA4800F0A2FFAF
:102E000018B94220C84908702FE0DAA1C54800F07F
:102E100099FF18B94320C449087026E0D7A1C148DA
:102E200000F090FF18B94420BF4908701DE0D5A1FB
:102E3000BC4800F087FF18B94520BB49087014E072
:102E4000D2A1B84800F07EFF18B94720B6490870F3
:102E50000BE0D1A0FFF761FBB248FFF75EFBD2A009
:102E6000FFF75BFB0020D1490870AE480555CF48FD
:102E7000007800B970BD601CC0B20446CC49097826
:102E800088422EDA0025A748005D222815D1601C53
:102E9000C4B207E0A348005DC6494855601CC4B2EF
:102EA000681CC5B29F48005D222803D0C048007846
:102EB0008442EFDB601CC4B210E007E09948005D7B
:102EC000BC494855601CC4B2681CC5B29548005D39
:102ED000202803D0B64800788442EFDB0020B549B3
:102EE0004855601CC0B20446B149097888422EDAC0
:102EF00000258C48005D222815D1601CC4B207E073
:102F00008848005DAC494855601CC4B2681CC5B215
:102F10008448005D222803D0A54800788442EFDB76
:102F2000601CC4B210E007E07E48005DA24948552D
:102F3000601CC4B2681CC5B27A48005D202803D06A
:102F40009B4800788442EFDB00209B49485500BF36
:102F500090E710B5994800689949096888427DD082
:102F6000984897490968445C95480068401C944912
:102F7000086008460068402801DB002008608CB12A
:102F8000032C20D00D2C28D18F48007848B18F48D1
:102F9000007830B963480078532802D10D20FFF73C
:102FA0008BFA00BF0020884908700120874908700B
:102FB00000205C497E4A12788854FFF737FC0020D5
:102FC0007B49087095E000207F49087001207F4907
:102FD00008700020764908708BE07B48007830B399
:102FE0002046FFF778FA724802780078401C704B50
:102FF00018704C48845476480078401E10F0FF004A
:103000007349087074D10021184602780078401C7A
:1030100018704448815400206B49087001206B49A6
:103020000870FFF703FC00206149087060E0604809
:1030300001780078401C5E4B18703A48445463484D
:103040000078002854D0412C15D0422C13D0432CAA
:1030500011D0442C0FD04C2C0DD000E04AE04D2C68
:1030600009D04E2C07D0532C05D0522C03D0482C1D
:1030700001D06B2C3CD1532C02D100205549086063
:10308000012053490870442C01D1022008706B2C98
:1030900002D110204E4908704E48006830B14E48A9
:1030A0000078012802D14D49087002E000204B4908
:1030B000087000204A4908703D49087008460278A7
:1030C0000078401C0B461870164884542046FFF7C1
:1030D00002FA2021364802780078401C344B1870E0
:1030E0001048815401203849087000203749087081
:1030F00000BF00BF10BD2DE9F0470546284600F08F
:1031000019FE06464EB1082E02D90220BDE8F0870E
:103110004FF000080127741E79E07AE0726573654C
:103120007400000068050020B10200206368656E2D
:10313000000000006D6F64650000000072616E6742
:10314000650000007463747970650000636C7263DD
:10315000616C000065777269746500006572656175
:103160006400000065647500657869650000000012
:10317000726567006463686E0000000074696D69C1
:103180006E6700007872617465000000636A6364B2
:10319000656C7461000000000D0A42616420436F99
:1031A0006D6D616E643A20000D0A0000B0020020CF
:1031B0003C000020FE05002030060020BC0200205C
:1031C000C0020020640E00203D00002040000020CE
:1031D000B2020020440000204800002041000020EE
:1031E0003E000020285D612803DB285DA0F157091F
:1031F00009E0285D412803DB285DA0F1370902E0E2
:10320000285DA0F1300909FB07883F01641E002CEE
:10321000E8DA40467AE7000030B503460C46194824
:10322000008800F0200141F040011943214311437F
:10323000144D2980012030BD014619B90020124AE1
:10324000106002E00120104A10604FF0010070474A
:1032500001460C4A083A1180012070470948001FB6
:10326000008870470748103000887047074800689A
:1032700030B94CF6CC400349091D08800120704745
:103280000020FCE78825004014B1044204B3044246
:1032900070B504460D460021A08C4FF6077600EA73
:1032A000060102F0F8000843A084A068874E00EAF7
:1032B00006010BB141F4802105F440500843A060A1
:1032C000012070BD70B50446002501F07F004FF469
:1032D000706606EA022630434DF280061E4040EA40
:1032E00006052584208C70BD10B502460B460021D2
:1032F000916813B141F4002101E021F400219068AC
:1033000008439060908C724C00EA040103F00700BF
:1033100008439084012010BD01460878704701469B
:10332000087970470146886C70470146C868704745
:1033300030B503460C4600219868664D00EA050149
:1033400002F4703001439960988B00F47F5104F0CF
:103350000F0001439983012030BD0246002393688A
:103360005D48034001F440601843906001207047BD
:1033700030B503460C4600219868584D00EA050117
:1033800002F47870014304F01F00014399600120AA
:1033900030BD034602B119711879704730B5044643
:1033A0000D460021A08B00F01F0105F4E0600144F0
:1033B00002F44050014403F0C0000843A083012000
:1033C00030BD024601F00400042806D1107940F017
:1033D00004001071042082F8440001F0080008285D
:1033E00006D1107940F008001071302082F84400B6
:1033F0000120704730B50446002541EA0200184319
:1034000005432580012030BD0246052A59D2DFE858
:1034100002F003142536470039B93148008800F01E
:103420001E00304BA3F8F80006E02D48008840F05D
:1034300001002C4BA3F8F80044E039B92848008873
:1034400000F01E00274BA3F8F80006E0244800888F
:1034500040F00300234BA3F8F80033E039B92048CB
:10346000008800F01B001F4BA3F8F80006E01C4882
:10347000008840F004001B4BA3F8F80022E039B9A3
:103480001748008800F01B00164BA3F8F80006E070
:103490001348008840F00C00124BA3F8F80011E02C
:1034A00039B90F48008800F00F000E4BA3F8F80060
:1034B00006E00B48008840F010000A4BA3F8F80023
:1034C00000E000BF00BF012070470000FFCFFF0FEA
:1034D000F8FF0F00FF3F0C00FFF30F0000FCFF00A0
:1034E000F80003400000034070B504460D4604F0A8
:1034F000070105F0030041EAC00103F0070041EABB
:10350000401115480180154E3280012070BD70B504
:1035100004460D4604F0070141EAC40105F0070026
:1035200041EA801102F0070041EA402103F0070060
:1035300041EA0031084EB180012070BD0146064AC3
:10354000918501207047014601F005020348343897
:1035500002700078704700000020004044240040C2
:103560000246334841604068704770B504460D46D6
:1035700003F40070B0F5007F05D14FF400712C48C2
:103580000180008870BDA8182044C118284E3180E1
:1035900030460088F6E730B504460B46B2F1807F2E
:1035A00006DB1046D51702EB5545EA13032119E057
:1035B000B2F5801F06DB1046D51702EB15652A12FF
:1035C00002210FE0B2F5802F06DB1046D51702EB83
:1035D00015752A11012105E01046D51702EB9575E6
:1035E000AA10002141F01801124D2A80114D083512
:1035F00029800F48018840F6DF7001400BB141F08F
:1036000020010B4D29802846008830BD024631B18B
:103610000748008840F48060054B188005E00448A6
:10362000008820F48060024B188001207047000061
:103630000000024000040040024611800120704753
:1036400010B50446217122722373012010BD024679
:103650001171012070470246117201207047024625
:103660001173012070470146FF2008730871087626
:103670000120704730B5034614461A884D000320D8
:10368000A8404FF6FF75281A0240480004FA00F0DF
:10369000104482B21A80012030BD10B50346144692
:1036A0001A7901208840C0F1FF00024004FA01F0BD
:1036B000104482B21A71012010BD10B503461446A1
:1036C0001A7A01208840C0F1FF00024004FA01F09C
:1036D000104482B21A72012010BD10B50346144680
:1036E0001A7B01208840C0F1FF00024004FA01F07B
:1036F000104482B21A73012010BD02460B4601200D
:10370000984081B2107B0843107310790843107100
:10371000107E08431076012070470146087D7047EF
:1037200002461176107E704702461177107F70476F
:10373000024682F8201092F820007047024682F874
:10374000241092F82400704730B504460D46A08B33
:1037500010F0400F01D0002030BD208900F47061CE
:1037600029431143194321810120F5E702461180C5
:10377000012070470146888870470146088A7047D3
:103780000246908B10F0400F01D000207047108946
:1037900020F470630B4313810120F7E70146888B07
:1037A000704702469181012070470146B1F1804F78
:1037B00002D103480068704701480068FBE7000039
:1037C0009883004230B503460C4619462143114305
:1037D000694D2980012030BD024682B9012906D1F8
:1037E0006548008840F00800634B188017E0624885
:1037F00000884FF6F77318405F4B18800FE00129DF
:1038000006D15D48008D40F040005B4B188506E016
:103810005948008D4FF6BF731840574B188501204B
:1038200070470246012A13D1012907D15348008865
:1038300040F48070504BA3F84C001CE04F480088C7
:1038400040F6FF6300EA03004B4BA3F84C0012E084
:10385000012907D14948008840F40070464BA3F87D
:103860004C0008E04548008840F6FF5300EA03009A
:10387000414BA3F84C004FF00100704730B50346B0
:103880000C461946214311433B4D2985012030BD8B
:1038900001460A46012A02D13748008E7047364851
:1038A000007AFBE710B502460B461946012A02D101
:1038B000314CA18601E0304C2173012010BD10B5C0
:1038C00002460B4643EA02232B4CA384012010BD81
:1038D00001464FF6FE700140FF2908D9264A1177AC
:1038E000062000EAD11040F0F000107603E0224AF2
:1038F0001176002010770120704710B50346481E4E
:103900001D4C20822046008A10432082FF2B07D9BD
:103910002377062000EAD31040F0F000207603E081
:10392000154C2376002020771348007E40F00100DC
:10393000114C2076012010BD0146012902D10E480C
:10394000808D70470C488088FBE70B48808A704761
:103950000146094A11870120704730B50446064DDB
:10396000AC87074D2980044DA5F84420054D2B80D8
:103970004FF0010030BD0000003000404C300040EE
:10398000403000404830004030B5044615460A46F5
:103990002A431A432282012030BD10B50346144643
:1039A0000C439C81012010BD0146087970470246F6
:1039B00011720120704701460888704710B5034610
:1039C000B1F5005F08D1188A40F400501882188AB7
:1039D0004DF6FF7420401882B2F5805F08D1188A36
:1039E00040F480501882188A4EF6FF7420401882E6
:1039F000012010BD0246B1F5005F04D1108A40F4E9
:103A00000050108204E0108A4DF6FF7318401082B7
:103A1000012070470246B1F5805F04D1108A40F45E
:103A20008050108204E0108A4EF6FF731840108216
:103A30000120704730B5044615460A462A431A430A
:103A4000A282012030BD0146088B7047F0B50446C4
:103A50000D4616463D48808800F4606149120829E9
:103A600015D2DFE801F00406080A0C0E101201213D
:103A70000EE002210CE004210AE0082108E01021F8
:103A800006E0202104E0402102E0802100E000BFA8
:103A900000BF2F48008800F00100012800D1490034
:103AA00048012C4F97FBF0F090FBF5F2228548017E
:103AB0004FF4006797FBF0F0264F784390FBF2F04D
:103AC00090FBF5F0A0F5006080B240F40840A084BF
:103AD0000020207103F03C0006F0030738432073F8
:103AE000207DF0BD024621B9107B00F03F0010732D
:103AF00003E0107B40F040001073107D70470146DA
:103B0000087D70470246107D10F0200F02D0117022
:103B1000012070470020FCE7014608787047034603
:103B200002B11974187E70470146087E704702463C
:103B3000107920F030030B431371012070470246C7
:103B40001171012070470146087A7047002000403B
:103B5000442400400024F40069480088012801D171
:103B6000002070474FF256406549203108804FF2DF
:103B70002310088003206249083108800120F0E703
:103B800001465F480088012801D1002070474FF2AC
:103B900056405B4A203210804FF223101080584A62
:103BA00010321180080C121D10800120544A083276
:103BB000108000BFEAE701464FF25640504A2032DB
:103BC00010804FF22310108021F000404D4A106009
:103BD0000120704701464FF25640494A203210807A
:103BE0004FF223101080464A28321180080C121D13
:103BF00010800120704701464FF25640404A203263
:103C000010804FF22310108001F001003C4A38323E
:103C1000108000203A4A2032108010800120704726
:103C2000014641B13648001D008840F00400344A86
:103C3000121D108007E03248001D008800F0FB00D4
:103C40002F4A121D1080012070472D4800887047B0
:103C500070B504460D462A480088012801D100208D
:103C600070BD4FF256402649203108804FF2231094
:103C70000880244908390C6020222046294600F09B
:103C800043F82049091F08600120E9E710B5034601
:103C90001B4C78342380241D2180241D2280012088
:103CA00010BD174948310888091D098840EA0140BC
:103CB0007047024612480088012801D10020704751
:103CC0000F4B10331A80100C1B1D18801B1D198000
:103CD000080C1B1D18804FF256401B1D18804FF218
:103CE000231018800220064B083318800120E6E7D5
:103CF000034930310888091D098840EA01407047AE
:103D000000280040F8FF0100202A04DB203A21FAB5
:103D100002F00021704721FA02F3D040C2F12002E4
:103D20009140084319467047A0F16101192900D854
:103D3000203870470146002000E0401C0A5C002A41
:103D4000FBD1704710B5002200E0521C835C8C5CF4
:103D5000A34201D1002BF8D1D8B2E1B2401A10BD74
:103D600070B5064600F0A4FB046805460A2200214F
:103D7000304600F023FA2C6070BD70B5064600F0A6
:103D800097FB046805460A220021304600F016FA27
:103D90002C6070BD2DE9FE4F074681EA0300C00F7D
:103DA0000E46019021F0004123F00044B81AA141D1
:103DB00005D23846314617461E460B46024623F0CA
:103DC0000040104304D13846314603B0BDE8F08FBF
:103DD000350DC5F30A00C3F30A510290401A009052
:103DE000402868DAC3F3130040F4801B0198924620
:103DF00020B10023D2EB030A63EB0B0B009859466A
:103E0000C0F14002504600F0B8F980460C465046DA
:103E10005946009A00F0C0F9C0197141EF1785EAC0
:103E200011533B4340D0019A52B3009A012A11DC4E
:103E30000022801A4FF0004361EB055103EA05535D
:103E40008018CDE9002341F580114246234600F059
:103E5000FAF9BAE72E050025401B61EB060140196F
:103E600041F58012001852412818A6F5001343EBC3
:103E7000020140EAD470294318EB0808644113E0BA
:103E800064084FEA38084FF0000244EAC0744FEA71
:103E90000553801A61EB0301801841F58011490830
:103EA0004FEA3000801859414246234603B0BDE82E
:103EB000F04F00F0BBB90198012240000023D0EB85
:103EC000020263EBE07301984FEAE074381A66EB84
:103ED0000401EBE783F000435CE781F0004159E720
:103EE0002DE9FE4F81EA030421F0004504F000446F
:103EF00023F000414FF0000A009450EA050302D07D
:103F000052EA010304D10020014603B0BDE8F08F5E
:103F1000C1F30A53C5F30A541C44A0FB02B3C5F312
:103F2000130545F4801CC1F3130141F480180CFB08
:103F3000023300FB083EA4F2F334810A930A41EAFB
:103F40008C5143EA88530194A1FB03474FEA9C2517
:103F500005FB03734FEA982601FB06373D0526054E
:103F600045EA1435BBEB06016EEB0503850E920E98
:103F700045EA8C1542EA8812A5FB0206261E67EB6D
:103F800000070C0D44EA0334A41947EB1350C1F3A6
:103F900013064FF0000319464FEA033343EA165362
:103FA00043EA0403019CE5FB0201A4F10C04029422
:103FB000009C4FEA0632CDE900A400F044F9A4E7E2
:103FC0002DE9F04D81EA030404F0004B21F0004795
:103FD00014464FF0000A23F0004150EA070220D0B7
:103FE00054EA01021DD0C1F30A550246C1F3130081
:103FF000C7F30A56C7F3130340F4801143F4801348
:10400000A6EB0508101BD64608F2FD3873EB01003D
:1040100002D308F1010801E092185B41B8F1000FEA
:1040200003DA00200146BDE8F08D00204FF4801532
:10403000064607460EE0B2EB040C73EB010C04D30A
:10404000121B064363EB01032F436D084FEA300058
:1040500092185B4150EA050CEDD152EA030012D0F0
:1040600082EA040083EA0105284303D100224FF0CD
:10407000004308E0101B8B4102D20122002302E022
:104080006FF0010253101AEB060047EB085110EBDA
:104090000A0041EB0B01BDE8F04D00F0C7B80EB5CA
:1040A000C10F80EAE0700844CA07002140F23343A0
:1040B0008DE80E000A460B4600F0C5F803B000BDBF
:1040C00000F0004230F000400DD0C10D01F56071EC
:1040D00042EA01510022C0F31600520742EAD00220
:1040E00040071143704700200146704730B50B462A
:1040F000014600202022012409E021FA02F59D4218
:1041000005D303FA02F5491B04FA02F52844151EEB
:10411000A2F10102F1DC30BD2DE9F05F054600207F
:1041200092469B4688460646814640241BE0284628
:10413000414647462246FFF7E7FD52465B46801A56
:10414000994110D310461946224600F016F82D1A50
:1041500067EB01084F4622460120002100F00DF8D0
:1041600017EB00094E41201EA4F10104DFDC484694
:1041700031462A464346BDE8F09F202A04DB203A18
:1041800000FA02F1002070479140C2F1200320FAAA
:1041900003F3194390407047202A06DBCB17203ADF
:1041A00041FA02F043EAE071704741FA02F3D0406D
:1041B000C2F1200291400843194670472DE9F047AB
:1041C0000F46914680460446002614F8015B2DB147
:1041D00000F0CAF80068405DC007F6D12B2D02D070
:1041E0002D2D18D0641E4A463946204600F0C0F8EE
:1041F00027B13968A14201D1C7F8008071054FF09D
:1042000002040BD54042002803DD00F051F90460A0
:10421000A007BDE8F08746F48066E4E70028F8DAF6
:1042200000F046F904606FF00040F2E710B5002B93
:1042300008DA401C41F1000192185B411A4301D198
:1042400020F0010010BD2DE9F04D92469B4611B1C2
:10425000B1FA81F202E0B0FA80F220329046FFF724
:104260008CFF06460F4640EA0A0041EA0B0152461F
:104270005B46084303D130463946BDE8F08D194608
:1042800052EA010015D0C8F140025046FFF73CFD4C
:1042900004460D46504659464246FFF76EFF084316
:1042A00001D0012000E00020044345EAE0752643E8
:1042B0002F430A984FEAD625A0EB08000A304FEAB0
:1042C00046534FF0000245EA47554FEAD72402D53E
:1042D00000200146D1E7010550196141DDE908459B
:1042E00000196941BDE8F04DA0E7C1F30A52C1F3DE
:1042F000130140F2FF3341F480119A4202DA0020A8
:104300000146704740F233439A42A2F2334202DC44
:104310005242FFF7F9BCFFF730BF000030B500296B
:1043200004DB4FF00044404264EB0101002B04DB4E
:104330004FF00044524264EB0303994208BF90429D
:1043400030BD0000064C074D06E0E06840F0010378
:1043500094E8070098471034AC42F6D3FBF7C4FE4C
:104360003C7200005C720000004870473872000028
:104370002DE9F05F8246007800278B4615460AF14A
:104380000104B946302801D09DB113E014F8010BA7
:104390000127782803D0582801D045B10AE00DB193
:1043A000102D07D10027102514F8010B02E0082575
:1043B00000E00A250026B0460EE005FB080005FBDC
:1043C00006F1012701EB10461FFA80F8B6F5803F91
:1043D00000D3B94614F8010B294600F018F800285C
:1043E000EBDABBF1000F05D00FB1641E00E05446BC
:1043F000CBF80040B9F1000F06D000F059F80221C7
:104400000160C81EBDE8F09F48EA0640FAE73A2876
:1044100000D2303820F02002412A01D3A2F1370027
:10442000884201D34FF0FF30704770B501EB0204B2
:1044300010F8015B15F0070301D110F8013B2A11B8
:1044400006D110F8012B03E010F8016B01F8016BA5
:104450005B1EF9D12B0705D40023521E0FD401F89F
:10446000013BFAE710F8013B02F10202A1EB030362
:1044700003E013F8015B01F8015B521EF9D5A1427C
:10448000D6D3002070BD00000FB4084B10B504A9AE
:1044900002AA039800F0CCF8044602A9002000F01C
:1044A00074FC204610BC5DF814FB00008B4D00002E
:1044B000004870472403002002E008C8121F08C10A
:1044C000002AFAD170477047002001E001C1121F95
:1044D000002AFBD1704700002DE9FF5FDDE90210E3
:1044E000020DDDF838B001430FD10F9801244BA322
:1044F000012807D000980F9AC0E90031C0E90242B4
:10450000BDE8FF9F6FEA0B01F4E7A2F2FF3244F629
:104510001050424315140F9801280ED0A5EB0B0044
:10452000401C4FF000043E4EDFF8F890B0F1000A56
:10453000A04605DACAF1000717E0CBF10000F0E76A
:10454000074612E0F80707D0224633464046494660
:10455000FFF7C6FC80468946224633461046194678
:10456000FFF7BEFC04460E467F10002FEAD1DDE9BE
:104570000201BAF1000F42464B4602DAFFF7B0FCE7
:1045800001E0FFF71DFD04460E460022264BFFF713
:10459000C5FE03D84FF0FF30014607E00022234B51
:1045A00020463146FFF7F6FBFFF79FFE102409E097
:1045B000002C0ADB0A220023FFF7AEFD019B3032FC
:1045C0001A55641E50EA0102F2D1641C019AC4F12A
:1045D000110314440F9A012A09D00122084301D182
:1045E0005B450FDD4FF0000205F101050DE00843CA
:1045F00003D1A3EB0B056D1E09E000204FF0110B5A
:104600000F9088E701DA00226D1E002A83D00098FF
:104610000F99C0E90231C0E9004571E730000000A0
:10462000000024400000F03F0000F0430000E03FA5
:104630002DE9FF4F95B006469A468946002521E2AE
:10464000252801D01799A6E00024F9492746761CB1
:104650004FF0010803943278203A08FA02F0084239
:1046600002D00443761CF6E730782A2811D06FF088
:104670002F023078A0F13001092916D8039944F0AF
:10468000020401EB810102EB41010844761C039016
:10469000EFE759F8041B0391002903DA484244F478
:1046A0000054039044F00204761C30782E2816D172
:1046B00016F8010F44F004042A280DD06FF02F01E2
:1046C0003078A0F13002092A09D807EB870201EB04
:1046D00042028718761CF3E759F8047B761C307881
:1046E0006C280FD006DC4C2817D068280DD06A281B
:1046F00014D104E0742810D07A280FD10DE044F4CE
:1047000000140AE044F4801401E044F44014717889
:10471000814202D1761C04F58014761C96F800C004
:10472000BCF1660F10D01ADCBCF1580F70D00CDC55
:10473000BCF1000F6DD0BCF1450FF3D0BCF1460FBA
:10474000F0D0BCF1470F24D1A4E1BCF1630F40D0FD
:10475000BCF1640F74D0BCF1650F1AD19AE1BCF1C1
:10476000700F6ED00CDCBCF1670FEDD0BCF1690F9F
:1047700075D0BCF16E0F12D0BCF16F0F09D1B3E050
:10478000BCF1730F2FD0BCF1750F76D0BCF1780F50
:1047900074D017996046524690476D1C70E1C4F37F
:1047A0000250022809D003280DD0D9F8001004289F
:1047B0000DD00D6009F1040962E1D9F80010EA1783
:1047C000C1E90052F6E7D9F800100D80F2E70D704C
:1047D000F0E759F8041B8DF8001000208DF8010057
:1047E000EB46012003E059F804BB4FF0FF306107AE
:1047F0004FF0000102D40FE008F101018846B942F0
:1048000011DA8045F8DB1BF808100029F4D10AE022
:1048100060E03BE108F1010188468142FADB1BF8C8
:1048200008100029F6D103985346A0EB080721464B
:104830003846179A00F091FA284400EB080506E084
:104840000DE049E01BF8010B524617999047B8F16B
:104850000108F7D2534621463846179A0DE10A213E
:10486000C4F302524FF0000B0091022A07D059F80E
:10487000040BC117032A0AD00BE024E025E009F15C
:10488000070020F00702F2E80201914605E000B2BD
:10489000C117042A01D140B2C117002906DA0A461D
:1048A0000021404261EB02012D2202E0220504D5E5
:1048B0002B228DF80420012203E0E20701D0202200
:1048C000F7E7904654E00A2100E010214FF0000B7A
:1048D00000910DE0102008E010204FF0000B44F094
:1048E00004040827009003E008204FF0000B00901C
:1048F000C4F30252022A05D059F8040B0021032AFE
:1049000008D009E009F1070020F00702F2E80201EF
:10491000914605E080B20021042A01D1C0B20021F5
:104920004FF00008220723D5BCF1700F28D0009B60
:1049300083F0100353EA0B0309D150EA010206D0B9
:1049400030228DF804208DF805C002229046009B8D
:1049500083F0080353EA0B030AD150EA010201D1A4
:10496000620705D530228DF804204FF001087F1E24
:10497000BCF1580F09D02FA20C920CAA029211E0A0
:1049800040228DF804200122E0E72FA2F4E75B46E5
:10499000009AFFF7C1FB0C9B9B5C029AA2F10102FB
:1049A0000292137050EA0102F1D1029804A9A1EB1E
:1049B000000000F1200B600702D524F4803400E0F1
:1049C00001275F4502DDA7EB0B0000E0002000EBB4
:1049D0000B01009003984144A0EB01000390E00319
:1049E00006D453462146179A039800F0B6F90544B9
:1049F000002706E001A85246C05D179990476D1C3C
:104A00007F1C4745F6DBE0030CD553462146179A39
:104A1000039800F0A2F9054404E0302052461799AB
:104A200090476D1C0099481E00900029F5DC1EE09F
:104A30000928010030313233343536373839616274
:104A40006364656600000000303132333435363738
:104A5000383941424344454600000000029802991B
:104A600052460078491C0291179990476D1CBBF182
:104A70000001ABF1010BF1DC50E100F05BF9054402
:104A800006F10106307800287FF4DAAD19B0284627
:104A9000BDE8F08F600700D4062709F1070020F079
:104AA0000701F1E80220894600F00043190001D017
:104AB0009DA109E0210501D59CA105E0E10701D0F8
:104AC0009BA101E0AFF2840120F000431391BCF1FF
:104AD000650F11D009DCBCF1450F0DD0BCF1460FBC
:104AE00020D0BCF1470F3ED13EE0BCF1660F19D09B
:104AF000BCF1670F7CD137E00021112F01DB1120C1
:104B000000E0781CCDE9000104A90CA8FFF7E4FC43
:104B1000DDE90D010C9A4FF0000B07F1010810922E
:104B200000914CE04FF000400097CDE9018004A9CE
:104B30000CA8FFF7D1FCDDE90E20DDE90C314FF0C8
:104B4000000B90461093009218B907F1010001EB99
:104B50000008B7EB080003D4C0F1FF3B07F10108E0
:104B6000A8EB0700019043E0012F00DA01270021A4
:104B7000112F01DD112000E03846CDE9000104A924
:104B80000CA8FFF7A9FCDDE90D010C9A00914FF08C
:104B9000000BB846109221070CD40099414500DA69
:104BA0008846B8F1010F05DD109AA8F10101515CAA
:104BB000302908D0B84202DA10F1040F06DA0121D8
:104BC000CDE9011014E0A8F10101E9E7002803DCB8
:104BD0008344A8EB000102E0411C414500DD88460A
:104BE000A0EB0B0000F1010001904FF0004002909B
:104BF000200705D40198404502DB4FF0FF300190BB
:104C000000208DF84B0002980DF14B07B0F1004FDA
:104C100026D002200C902B200D90029800280CDA50
:104C2000404202902D200D9007E00A210298FFF7E4
:104C30005DFA3031029007F8011D0C99481E0C9066
:104C40000029F2DC02980028EFD1A7F101010D98AC
:104C50000870307800F0200040F0450007F8020DA1
:104C600011A8A0EB070000F107000290139800784C
:104C700000B1012000EB0801019801EBE0710298FE
:104C800001440398A0EB0100A0F101000390E003B0
:104C900006D453462146179A039800F05EF805445F
:104CA0001398007820B152461799904705F10105F5
:104CB000E00322D553462146179A039800F04DF899
:104CC00005441AE0BBF1000F07DB0098584504DDEE
:104CD0001098179910F80B0001E0179930205246F0
:104CE000904701986D1C401E0BF1010B019004D1FF
:104CF0002E205246179990476D1CB8F10001A8F17B
:104D00000108DFDC05E017F8010B524617999047C0
:104D10006D1C0299481E02900029F4DC534621467E
:104D2000179A0398A9E600002D0000002B00000050
:104D3000200000002DE9F0410446002517461E46DC
:104D4000880405D406E039462020B04705F1010566
:104D5000641EF8D52846BDE8F0812DE9F0410446EF
:104D6000002590461E46C80301D5302700E02027C5
:104D7000880405D506E041463846B04705F10105EF
:104D8000641EF8D52846BDE8F0810A68531C0B6004
:104D90001070704700C000C001C001C001C000C059
:104DA00003C002C000C000C001C001C001C000C0FB
:104DB00003C002C000C000C001C001C001C000C0EB
:104DC00003C002C000C000C001C001C001C000C0DB
:104DD00003C002C000C000C001C001C001C000C0CB
:104DE00003C002C000C000C001C001C001C000C0BB
:104DF00003C002C000C000C001C001C001C000C0AB
:104E000003C002C000C000C001C001C001C000C09A
:104E100003C002C000C000C001C001C001C000C08A
:104E200003C002C000C000C001C001C001C000C07A
:104E300003C002C000C000C001C001C001C000C06A
:104E400003C002C000C000C001C001C001C000C05A
:104E500003C002C000C000C001C001C001C000C04A
:104E600003C002C000C000C001C001C001C000C03A
:104E700003C002C000C000C001C001C001C000C02A
:104E800003C002C000C000C001C001C001C000C01A
:104E900003C002C000C000C001C001C001C000C00A
:104EA00003C002C000C000C001C001C001C000C0FA
:104EB00003C002C000C000C001C001C001C000C0EA
:104EC00003C002C000C000C001C001C001C000C0DA
:104ED00003C002C000C000C001C001C001C000C0CA
:104EE00003C002C000C000C001C001C001C000C0BA
:104EF00003C002C000C000C001C001C001C000C0AA
:104F000003C002C000C000C001C001C001C000C099
:104F100003C002C000C000C001C001C001C000C089
:104F200003C002C000C000C001C001C001C000C079
:104F300003C002C000C000C001C001C001C000C069
:104F400003C002C000C000C001C001C001C000C059
:104F500003C002C000C000C001C001C001C000C049
:104F600003C002C000C000C001C001C001C000C039
:104F700003C002C000C000C001C001C001C000C029
:104F800003C002C000C000C001C001C001C000C019
:104F900003C002C000C000C001C001C001C000C009
:104FA00003C002C000C000C001C001C001C000C0F9
:104FB00003C002C000C000C001C001C001C000C0E9
:104FC00003C002C000C000C001C001C001C000C0D9
:104FD00003C002C000C000C001C001C001C000C0C9
:104FE00003C002C000C000C001C001C001C000C0B9
:104FF00003C002C000C000C001C001C001C000C0A9
:1050000003C002C000C000C001C001C001C000C098
:1050100003C002C000C000C001C001C001C000C088
:1050200003C002C000C000C001C001C001C000C078
:1050300003C002C000C000C001C001C001C000C068
:1050400003C002C000C000C001C001C001C000C058
:1050500003C002C000C000C001C001C001C000C048
:1050600003C002C000C000C001C001C001C000C038
:1050700003C002C000C000C001C001C001C000C028
:1050800003C002C000C000C001C001C001C000C018
:1050900003C002C000C000C001C001C001C000C008
:1050A00003C002C000C000C001C001C001C000C0F8
:1050B00003C002C000C000C001C001C001C000C0E8
:1050C00003C002C000C000C001C001C001C000C0D8
:1050D00003C002C000C000C001C001C001C000C0C8
:1050E00003C002C000C000C001C001C001C000C0B8
:1050F00003C002C000C000C001C001C001C000C0A8
:1051000003C002C000C000C001C001C001C000C097
:1051100003C002C000C000C001C001C001C000C087
:1051200003C002C000C000C001C001C001C000C077
:1051300003C002C000C000C001C001C001C000C067
:1051400003C002C000C000C001C001C001C000C057
:1051500003C002C000C000C001C001C001C000C047
:1051600003C002C000C000C001C001C001C000C037
:1051700003C002C000C000C001C001C001C000C027
:1051800003C002C000C000C001C001C001C000C017
:1051900003C002C000C000C001C001C001C000C007
:1051A00003C002C000C000C001C001C001C000C0F7
:1051B00003C002C000C000C001C001C001C000C0E7
:1051C00003C002C000C000C001C001C001C000C0D7
:1051D00003C002C000C000C001C001C001C000C0C7
:1051E00003C002C000C000C001C001C001C000C0B7
:1051F00003C002C000C000C001C001C001C000C0A7
:1052000003C002C000C000C001C001C001C000C096
:1052100003C002C000C000C001C001C001C000C086
:1052200003C002C000C000C001C001C001C000C076
:1052300003C002C000C000C001C001C001C000C066
:1052400003C002C000C000C001C001C001C000C056
:1052500003C002C000C000C001C001C001C000C046
:1052600003C002C000C000C001C001C001C000C036
:1052700003C002C000C000C001C001C001C000C026
:1052800003C002C000C000C001C001C001C000C016
:1052900003C002C000C000C001C001C001C000C006
:1052A00003C002C000C000C001C001C001C000C0F6
:1052B00003C002C000C000C001C001C001C000C0E6
:1052C00003C002C000C000C001C001C001C000C0D6
:1052D00003C002C000C000C001C001C001C000C0C6
:1052E00003C002C000C000C001C001C001C000C0B6
:1052F00003C002C000C000C001C001C001C000C0A6
:1053000003C002C000C000C001C001C001C000C095
:1053100003C002C000C000C001C001C001C000C085
:1053200003C002C000C000C001C001C001C000C075
:1053300003C002C000C000C001C001C001C000C065
:1053400003C002C000C000C001C001C001C000C055
:1053500003C002C000C000C001C001C001C000C045
:1053600003C002C000C000C001C001C001C000C035
:1053700003C002C000C000C001C001C001C000C025
:1053800003C002C000C000C001C001C001C000C015
:1053900003C002C000C000C001C001C001C000C005
:1053A00003C002C000C000C001C001C001C000C0F5
:1053B00003C002C000C000C001C001C001C000C0E5
:1053C00003C002C000C000C001C001C001C000C0D5
:1053D00003C002C000C000C001C001C001C000C0C5
:1053E00003C0C1C100C000C001C001C001C000C0F5
:1053F00003C01EC400C000C001C001C001C000C085
:1054000003C04FC600C000C001C001C001C000C041
:1054100003C05CC800C000C001C001C001C000C022
:1054200003C04BCA00C000C001C001C001C000C021
:1054300003C022CC00C000C001C001C001C000C038
:1054400003C0E4CD00C000C001C001C001C000C065
:1054500003C093CF00C000C001C001C001C000C0A4
:1054600003C033D100C000C001C001C001C000C0F2
:1054700003C0C6D200C000C001C001C001C000C04E
:1054800003C04BD400C000C001C001C001C000C0B7
:1054900003C0C5D500C000C001C001C001C000C02C
:1054A00003C035D700C000C001C001C001C000C0AA
:1054B00003C09BD800C000C001C001C001C000C033
:1054C00003C0F9D900C000C001C001C001C000C0C4
:1054D00003C04FDB00C000C001C001C001C000C05C
:1054E00003C09DDC00C0F0C001C001C001C000C00D
:1054F00003C0E5DD00C0B2C339C101C0AFC000C008
:1055000003C026DF00C00DC6EAC301C046C300C009
:1055100003C062E000C02BC81DC601C058C500C052
:1055200003C099E100C01DCA12C8FAC127C700C054
:1055300003C0CAE200C0F0CBDEC9D3C4CAC800C0F1
:1055400003C0F7E300C0AACD8CCB2EC750CA00C061
:1055500003C01FE500C04FCF27CD42C9C1CB00C05B
:1055600003C043E600C0E4D0B2CE2ACB23CD00C0B6
:1055700003C062E700C06BD230D0F3CC7ACE00C05B
:1055800003C07DE800C0E5D3A4D1A6CEC9CF92C0A8
:10559000B0C095E900C055D510D349D011D185C30D
:1055A00085C3ABEA00C0BDD675D4E1D158D2EBC5F6
:1055B000E4C5BEEBFBC21ED8D4D572D397D309C8BD
:1055C00004C8CEECEDC778D92FD7FDD4D1D4FAC911
:1055D000FBC9DBED1FCCCCDA87D885D604D6CCCB83
:1055E000D6CBE5EED9CF1ADCDAD90DD831D787CDB5
:1055F0009DCDECEF3CD362DD2CDB98D959D830CF70
:1056000053CFF1F05ED6A5DE7ADC27DB7CD9CAD099
:10561000FCD0F3F14CD9E4DFC7DDBADC9ADA58D21A
:105620009CD2F3F211DC1EE112DF50DEB4DBDDD3DD
:1056300032D4F0F3B3DE55E25CE0E8DFC9DC59D5E3
:10564000C1D5EBF438E187E3A4E17FE1DADDCDD623
:105650004AD7E4F5A4E3B6E4ECE214E3E8DE3BD891
:10566000CDD8DBF6F9E5E2E533E4A6E4F3DFA3D930
:105670004CDACFF73AE80BE77AE534E6FAE007DBF5
:10568000C7DBC2F86AEA32E8C1E6C0E7FFE166DCE0
:105690003EDDB2F989EC55E908E849E900E3C0DDEF
:1056A000B1DEA1FA99EE77EA4FE9D0EAFFE317DF1E
:1056B00022E08EFB9DF097EB96EA56ECFCE46AE064
:1056C0008FE179FC94F2B4ECDEEBDAEDF7E5BAE1C8
:1056D000FAE263FD80F4D0ED25ED5DEFEFE607E340
:1056E00063E44BFE63F6EAEE6DEEDFF0E6E750E4CE
:1056F000C9E531FF3BF802F0B6EF61F2DBE897E570
:105700002DE716000BFA19F1FEF0E0F3CEE9DCE626
:105710008FE8F900D3FB2FF247F260F5BFEA1EE8ED
:10572000EEE9DB0194FD44F390F3DFF6AFEB5DE9C6
:105730004CEBBB024EFF57F4DAF45DF89EEC9AEAAC
:10574000A8EC9A03010169F523F6DBF98BEDD5EBA3
:1057500001EE7804AE027BF66CF759FB77EE0DEDA7
:1057600059EF540555048BF7B5F8D7FC62EF44EEBA
:10577000AEF02F06F7059AF8FEF955FE4CF077EFDC
:1057800002F209079307A9F946FBD4FF34F1A9F007
:1057900053F3E2072B09B7FA8EFC52011CF2D9F140
:1057A000A3F4BA08BE0AC4FBD5FDD20202F307F384
:1057B000F1F590094D0CD1FC1BFF5204E8F332F4D3
:1057C0003CF7660AD80DDDFD6000D305CDF45CF52D
:1057D00086F83A0B5E0FE8FEA3015507B1F584F693
:1057E000CEF90E0CE110F3FFE502D90894F6A9F703
:1057F00014FBE00C6112FD0026045E0A76F7CDF87A
:1058000058FCB10DDD1307026505E50B58F8EFF9FB
:105810009AFD820E56151003A2066D0D38F90FFB86
:10582000DBFE510FCC161904DC07F70E19FA2DFC1C
:10583000190020104018220515098210F8FA4AFDB7
:105840005601EE10B1192A064B0A0F12D8FB65FE5D
:105850009102BA111F1B32077F0B9E13B6FC7EFF0D
:10586000CB0386128C1C3A08B00C2F1594FD9500C2
:1058700003055113F61D4209DF0DC11672FEAB017F
:1058800039061C145E1F4A0A0C0F56184FFFC0023F
:105890006E07E514C520510B3510EC192C00D2030E
:1058A000A108AE152A22590C5D11851B0901E404DB
:1058B000D30976168D23600D82121F1DE501F305B5
:1058C000040B3D17EF24680EA513BC1EC00202078F
:1058D000330C041850266F0FC6145A209C030F086F
:1058E000600DC918B0277710E615FB2177041B0956
:1058F0008D0E8F190F297F1104179E235205250A3B
:10590000B80F531A6D2A8712201844252C062E0B27
:10591000E210171BCB2B8F133C19EC260707360C14
:105920000B12DA1B282D9714561A9728E1073D0D04
:1059300033139C1C852EA0156F1B452ABB08430EF4
:105940005A145E1DE12FA816881CF62B9509470FE7
:1059500081151F1E3D31B117A11DA92D6E0A4B10D7
:10596000A616DF1E9932BA18BB1E602F480B4D11C8
:10597000CC179F1FF633C419D51F1B31210C4F12B2
:10598000F0185E205335CE1AF120D932FB0C4F139C
:10599000141A1D21B036D81B0E229B34D40D4F147F
:1059A000381BDB210E38E31C2E236136AD0E4E155D
:1059B0005B1C98226D39EE1D4F242C38870F4C1636
:1059C0007D1D5523CC3AF91E7225FB3960104A170C
:1059D000A01E12242D3C04209726CF3B39114718D6
:1059E000C21FCD248E3D1021BE27A83D121244199E
:1059F000E4208925F13E1D22E828863FEB12401A5B
:105A000006224426FF3F2A23132A0040C5133B1BCE
:105A10002823FE26FF3F3724412B00409E14371CCD
:105A20004A24B827FF3F4425702C00407715311DCC
:105A30006D257128FF3F5226A12D004051162C1EC6
:105A40008F262A29FF3F6127D42E00402A17261FC0
:105A5000B127E229FF3F70280830004004182020B9
:105A6000D4289A2AFF3F7F293E310040DD181921B2
:105A7000F729512BFF3F8F2A75320040B7191322A7
:105A80001A2B082CFF3F9F2BAC330040911A0C239C
:105A90003E2CBE2CFF3FB02CE53400406B1B06248F
:105AA000622D742DFF3FC12D1E360040451CFF2482
:105AB000872E2A2EFF3FD22E58370040201DF82572
:105AC000AD2FDF2EFF3FE52F93380040FA1DF12662
:105AD000D330942FFF3FF730CD390040D51EEA2751
